{
  "contractName": "SolnSquareVerifier",
  "abi": [
    {
      "constant": true,
      "inputs": [
        {
          "name": "interfaceId",
          "type": "bytes4"
        }
      ],
      "name": "supportsInterface",
      "outputs": [
        {
          "name": "",
          "type": "bool"
        }
      ],
      "payable": false,
      "stateMutability": "view",
      "type": "function"
    },
    {
      "constant": true,
      "inputs": [],
      "name": "name",
      "outputs": [
        {
          "name": "",
          "type": "string"
        }
      ],
      "payable": false,
      "stateMutability": "view",
      "type": "function"
    },
    {
      "constant": true,
      "inputs": [
        {
          "name": "tokenId",
          "type": "uint256"
        }
      ],
      "name": "getApproved",
      "outputs": [
        {
          "name": "",
          "type": "address"
        }
      ],
      "payable": false,
      "stateMutability": "view",
      "type": "function"
    },
    {
      "constant": false,
      "inputs": [
        {
          "name": "to",
          "type": "address"
        },
        {
          "name": "tokenId",
          "type": "uint256"
        }
      ],
      "name": "approve",
      "outputs": [],
      "payable": false,
      "stateMutability": "nonpayable",
      "type": "function"
    },
    {
      "constant": true,
      "inputs": [],
      "name": "totalSupply",
      "outputs": [
        {
          "name": "",
          "type": "uint256"
        }
      ],
      "payable": false,
      "stateMutability": "view",
      "type": "function"
    },
    {
      "constant": false,
      "inputs": [
        {
          "name": "from",
          "type": "address"
        },
        {
          "name": "to",
          "type": "address"
        },
        {
          "name": "tokenId",
          "type": "uint256"
        }
      ],
      "name": "transferFrom",
      "outputs": [],
      "payable": false,
      "stateMutability": "nonpayable",
      "type": "function"
    },
    {
      "constant": false,
      "inputs": [
        {
          "name": "_myid",
          "type": "bytes32"
        },
        {
          "name": "_result",
          "type": "string"
        }
      ],
      "name": "__callback",
      "outputs": [],
      "payable": false,
      "stateMutability": "nonpayable",
      "type": "function"
    },
    {
      "constant": true,
      "inputs": [
        {
          "name": "owner",
          "type": "address"
        },
        {
          "name": "index",
          "type": "uint256"
        }
      ],
      "name": "tokenOfOwnerByIndex",
      "outputs": [
        {
          "name": "",
          "type": "uint256"
        }
      ],
      "payable": false,
      "stateMutability": "view",
      "type": "function"
    },
    {
      "constant": false,
      "inputs": [
        {
          "name": "_myid",
          "type": "bytes32"
        },
        {
          "name": "_result",
          "type": "string"
        },
        {
          "name": "_proof",
          "type": "bytes"
        }
      ],
      "name": "__callback",
      "outputs": [],
      "payable": false,
      "stateMutability": "nonpayable",
      "type": "function"
    },
    {
      "constant": false,
      "inputs": [],
      "name": "unpause",
      "outputs": [],
      "payable": false,
      "stateMutability": "nonpayable",
      "type": "function"
    },
    {
      "constant": false,
      "inputs": [
        {
          "name": "to",
          "type": "address"
        },
        {
          "name": "tokenId",
          "type": "uint256"
        }
      ],
      "name": "mint",
      "outputs": [
        {
          "name": "",
          "type": "bool"
        }
      ],
      "payable": false,
      "stateMutability": "nonpayable",
      "type": "function"
    },
    {
      "constant": false,
      "inputs": [
        {
          "name": "from",
          "type": "address"
        },
        {
          "name": "to",
          "type": "address"
        },
        {
          "name": "tokenId",
          "type": "uint256"
        }
      ],
      "name": "safeTransferFrom",
      "outputs": [],
      "payable": false,
      "stateMutability": "nonpayable",
      "type": "function"
    },
    {
      "constant": true,
      "inputs": [
        {
          "name": "index",
          "type": "uint256"
        }
      ],
      "name": "tokenByIndex",
      "outputs": [
        {
          "name": "",
          "type": "uint256"
        }
      ],
      "payable": false,
      "stateMutability": "view",
      "type": "function"
    },
    {
      "constant": true,
      "inputs": [],
      "name": "paused",
      "outputs": [
        {
          "name": "",
          "type": "bool"
        }
      ],
      "payable": false,
      "stateMutability": "view",
      "type": "function"
    },
    {
      "constant": true,
      "inputs": [
        {
          "name": "tokenId",
          "type": "uint256"
        }
      ],
      "name": "ownerOf",
      "outputs": [
        {
          "name": "",
          "type": "address"
        }
      ],
      "payable": false,
      "stateMutability": "view",
      "type": "function"
    },
    {
      "constant": true,
      "inputs": [
        {
          "name": "owner",
          "type": "address"
        }
      ],
      "name": "balanceOf",
      "outputs": [
        {
          "name": "",
          "type": "uint256"
        }
      ],
      "payable": false,
      "stateMutability": "view",
      "type": "function"
    },
    {
      "constant": false,
      "inputs": [],
      "name": "pause",
      "outputs": [],
      "payable": false,
      "stateMutability": "nonpayable",
      "type": "function"
    },
    {
      "constant": true,
      "inputs": [],
      "name": "owner",
      "outputs": [
        {
          "name": "",
          "type": "address"
        }
      ],
      "payable": false,
      "stateMutability": "view",
      "type": "function"
    },
    {
      "constant": true,
      "inputs": [],
      "name": "symbol",
      "outputs": [
        {
          "name": "",
          "type": "string"
        }
      ],
      "payable": false,
      "stateMutability": "view",
      "type": "function"
    },
    {
      "constant": false,
      "inputs": [
        {
          "name": "to",
          "type": "address"
        },
        {
          "name": "approved",
          "type": "bool"
        }
      ],
      "name": "setApprovalForAll",
      "outputs": [],
      "payable": false,
      "stateMutability": "nonpayable",
      "type": "function"
    },
    {
      "constant": false,
      "inputs": [
        {
          "name": "from",
          "type": "address"
        },
        {
          "name": "to",
          "type": "address"
        },
        {
          "name": "tokenId",
          "type": "uint256"
        },
        {
          "name": "_data",
          "type": "bytes"
        }
      ],
      "name": "safeTransferFrom",
      "outputs": [],
      "payable": false,
      "stateMutability": "nonpayable",
      "type": "function"
    },
    {
      "constant": true,
      "inputs": [
        {
          "name": "tokenId",
          "type": "uint256"
        }
      ],
      "name": "tokenURI",
      "outputs": [
        {
          "name": "",
          "type": "string"
        }
      ],
      "payable": false,
      "stateMutability": "view",
      "type": "function"
    },
    {
      "constant": true,
      "inputs": [],
      "name": "baseTokenURI",
      "outputs": [
        {
          "name": "",
          "type": "string"
        }
      ],
      "payable": false,
      "stateMutability": "view",
      "type": "function"
    },
    {
      "constant": true,
      "inputs": [
        {
          "name": "owner",
          "type": "address"
        },
        {
          "name": "operator",
          "type": "address"
        }
      ],
      "name": "isApprovedForAll",
      "outputs": [
        {
          "name": "",
          "type": "bool"
        }
      ],
      "payable": false,
      "stateMutability": "view",
      "type": "function"
    },
    {
      "constant": false,
      "inputs": [
        {
          "name": "newOwner",
          "type": "address"
        }
      ],
      "name": "transferOwnership",
      "outputs": [],
      "payable": false,
      "stateMutability": "nonpayable",
      "type": "function"
    },
    {
      "constant": false,
      "inputs": [
        {
          "name": "a",
          "type": "uint256[2]"
        },
        {
          "name": "a_p",
          "type": "uint256[2]"
        },
        {
          "name": "b",
          "type": "uint256[2][2]"
        },
        {
          "name": "b_p",
          "type": "uint256[2]"
        },
        {
          "name": "c",
          "type": "uint256[2]"
        },
        {
          "name": "c_p",
          "type": "uint256[2]"
        },
        {
          "name": "h",
          "type": "uint256[2]"
        },
        {
          "name": "k",
          "type": "uint256[2]"
        },
        {
          "name": "input",
          "type": "uint256[2]"
        }
      ],
      "name": "verifyTx",
      "outputs": [
        {
          "name": "r",
          "type": "bool"
        }
      ],
      "payable": false,
      "stateMutability": "nonpayable",
      "type": "function"
    },
    {
      "anonymous": false,
      "inputs": [
        {
          "indexed": false,
          "name": "_index",
          "type": "uint256"
        },
        {
          "indexed": false,
          "name": "_address",
          "type": "address"
        }
      ],
      "name": "SolutionAdded",
      "type": "event"
    },
    {
      "anonymous": false,
      "inputs": [
        {
          "indexed": false,
          "name": "s",
          "type": "string"
        }
      ],
      "name": "Verified",
      "type": "event"
    },
    {
      "anonymous": false,
      "inputs": [
        {
          "indexed": true,
          "name": "from",
          "type": "address"
        },
        {
          "indexed": true,
          "name": "to",
          "type": "address"
        },
        {
          "indexed": true,
          "name": "tokenId",
          "type": "uint256"
        }
      ],
      "name": "Transfer",
      "type": "event"
    },
    {
      "anonymous": false,
      "inputs": [
        {
          "indexed": true,
          "name": "owner",
          "type": "address"
        },
        {
          "indexed": true,
          "name": "approved",
          "type": "address"
        },
        {
          "indexed": true,
          "name": "tokenId",
          "type": "uint256"
        }
      ],
      "name": "Approval",
      "type": "event"
    },
    {
      "anonymous": false,
      "inputs": [
        {
          "indexed": true,
          "name": "owner",
          "type": "address"
        },
        {
          "indexed": true,
          "name": "operator",
          "type": "address"
        },
        {
          "indexed": false,
          "name": "approved",
          "type": "bool"
        }
      ],
      "name": "ApprovalForAll",
      "type": "event"
    },
    {
      "anonymous": false,
      "inputs": [
        {
          "indexed": false,
          "name": "account",
          "type": "address"
        }
      ],
      "name": "Paused",
      "type": "event"
    },
    {
      "anonymous": false,
      "inputs": [
        {
          "indexed": false,
          "name": "account",
          "type": "address"
        }
      ],
      "name": "Unpaused",
      "type": "event"
    },
    {
      "anonymous": false,
      "inputs": [
        {
          "indexed": false,
          "name": "oldOwner",
          "type": "address"
        },
        {
          "indexed": false,
          "name": "newOwner",
          "type": "address"
        }
      ],
      "name": "OwnershipTransfered",
      "type": "event"
    },
    {
      "constant": false,
      "inputs": [
        {
          "name": "_index",
          "type": "uint256"
        },
        {
          "name": "_address",
          "type": "address"
        }
      ],
      "name": "addSolution",
      "outputs": [],
      "payable": false,
      "stateMutability": "nonpayable",
      "type": "function"
    },
    {
      "constant": false,
      "inputs": [
        {
          "name": "_index",
          "type": "uint256"
        },
        {
          "name": "_address",
          "type": "address"
        },
        {
          "name": "a",
          "type": "uint256[2]"
        },
        {
          "name": "a_p",
          "type": "uint256[2]"
        },
        {
          "name": "b",
          "type": "uint256[2][2]"
        },
        {
          "name": "b_p",
          "type": "uint256[2]"
        },
        {
          "name": "c",
          "type": "uint256[2]"
        },
        {
          "name": "c_p",
          "type": "uint256[2]"
        },
        {
          "name": "h",
          "type": "uint256[2]"
        },
        {
          "name": "k",
          "type": "uint256[2]"
        },
        {
          "name": "input",
          "type": "uint256[2]"
        }
      ],
      "name": "mintNFT",
      "outputs": [
        {
          "name": "",
          "type": "bool"
        }
      ],
      "payable": false,
      "stateMutability": "nonpayable",
      "type": "function"
    }
  ],
  "bytecode": "0x60806040526040805190810160405280600f81526020017f5265616c657374617465546f6b656e00000000000000000000000000000000008152506040805190810160405280600381526020017f5253540000000000000000000000000000000000000000000000000000000000815250606060405190810160405280603f8152602001620055f8603f9139336000806101000a81548173ffffffffffffffffffffffffffffffffffffffff021916908373ffffffffffffffffffffffffffffffffffffffff1602179055507f0d18b5fd22306e373229b9439188228edca81207d1667f604daf6cef8aa3ee67600033604051808373ffffffffffffffffffffffffffffffffffffffff1673ffffffffffffffffffffffffffffffffffffffff1681526020018273ffffffffffffffffffffffffffffffffffffffff1673ffffffffffffffffffffffffffffffffffffffff1681526020019250505060405180910390a160008060146101000a81548160ff021916908315150217905550620001ba6301ffc9a77c010000000000000000000000000000000000000000000000000000000002620002c5640100000000026401000000009004565b620001f76380ac58cd7c010000000000000000000000000000000000000000000000000000000002620002c5640100000000026401000000009004565b6200023463780e9d637c010000000000000000000000000000000000000000000000000000000002620002c5640100000000026401000000009004565b82600f90805190602001906200024c92919062000383565b5081601090805190602001906200026592919062000383565b5080601190805190602001906200027e92919062000383565b50620002bc635b5e139f7c010000000000000000000000000000000000000000000000000000000002620002c5640100000000026401000000009004565b50505062000432565b63ffffffff7c010000000000000000000000000000000000000000000000000000000002817bffffffffffffffffffffffffffffffffffffffffffffffffffffffff1916141515156200031757600080fd5b6001806000837bffffffffffffffffffffffffffffffffffffffffffffffffffffffff19167bffffffffffffffffffffffffffffffffffffffffffffffffffffffff1916815260200190815260200160002060006101000a81548160ff02191690831515021790555050565b828054600181600116156101000203166002900490600052602060002090601f016020900481019282601f10620003c657805160ff1916838001178555620003f7565b82800160010185558215620003f7579182015b82811115620003f6578251825591602001919060010190620003d9565b5b5090506200040691906200040a565b5090565b6200042f91905b808211156200042b57600081600090555060010162000411565b5090565b90565b6151b680620004426000396000f3fe608060405234801561001057600080fd5b50600436106101e1576000357c0100000000000000000000000000000000000000000000000000000000900480635c975abb11610116578063b88d4fde116100b4578063d547cfb71161008e578063d547cfb714610eaa578063e985e9c514610f2d578063f2fde38b14610fa9578063fe01ff6214610fed576101e1565b8063b88d4fde14610cb0578063c87b56dd14610db5578063ccd0ef6914610e5c576101e1565b80638456cb59116100f05780638456cb5914610b895780638da5cb5b14610b9357806395d89b4114610bdd578063a22cb46514610c60576101e1565b80635c975abb14610aa15780636352211e14610ac357806370a0823114610b31576101e1565b806327dc297e116101835780633f4ba83a1161015d5780633f4ba83a1461098157806340c10f191461098b57806342842e0e146109f15780634f6ccce714610a5f576101e1565b806327dc297e146106fe5780632f745c59146107c357806338bbfa5014610825576101e1565b8063095ea7b3116101bf578063095ea7b31461033c57806318160ddd1461038a578063195915d0146103a857806323b872dd14610690576101e1565b806301ffc9a7146101e657806306fdde031461024b578063081812fc146102ce575b600080fd5b610231600480360360208110156101fc57600080fd5b8101908080357bffffffffffffffffffffffffffffffffffffffffffffffffffffffff191690602001909291905050506112ab565b604051808215151515815260200191505060405180910390f35b610253611313565b6040518080602001828103825283818151815260200191508051906020019080838360005b83811015610293578082015181840152602081019050610278565b50505050905090810190601f1680156102c05780820380516001836020036101000a031916815260200191505b509250505060405180910390f35b6102fa600480360360208110156102e457600080fd5b81019080803590602001909291905050506113b5565b604051808273ffffffffffffffffffffffffffffffffffffffff1673ffffffffffffffffffffffffffffffffffffffff16815260200191505060405180910390f35b6103886004803603604081101561035257600080fd5b81019080803573ffffffffffffffffffffffffffffffffffffffff169060200190929190803590602001909291905050506113f2565b005b6103926115e1565b6040518082815260200191505060405180910390f35b61067660048036036102c08110156103bf57600080fd5b8101908080359060200190929190803573ffffffffffffffffffffffffffffffffffffffff16906020019092919080604001906002806020026040519081016040528092919082600260200280828437600081840152601f19601f820116905080830192505050505050919291929080604001906002806020026040519081016040528092919082600260200280828437600081840152601f19601f82011690508083019250505050505091929192908060800190600280602002604051908101604052809291906000905b828210156104df578382604002016002806020026040519081016040528092919082600260200280828437600081840152601f19601f8201169050808301925050505050508152602001906001019061048b565b50505050919291929080604001906002806020026040519081016040528092919082600260200280828437600081840152601f19601f820116905080830192505050505050919291929080604001906002806020026040519081016040528092919082600260200280828437600081840152601f19601f820116905080830192505050505050919291929080604001906002806020026040519081016040528092919082600260200280828437600081840152601f19601f820116905080830192505050505050919291929080604001906002806020026040519081016040528092919082600260200280828437600081840152601f19601f820116905080830192505050505050919291929080604001906002806020026040519081016040528092919082600260200280828437600081840152601f19601f820116905080830192505050505050919291929080604001906002806020026040519081016040528092919082600260200280828437600081840152601f19601f82011690508083019250505050505091929192905050506115ee565b604051808215151515815260200191505060405180910390f35b6106fc600480360360608110156106a657600080fd5b81019080803573ffffffffffffffffffffffffffffffffffffffff169060200190929190803573ffffffffffffffffffffffffffffffffffffffff169060200190929190803590602001909291905050506117e3565b005b6107c16004803603604081101561071457600080fd5b81019080803590602001909291908035906020019064010000000081111561073b57600080fd5b82018360208201111561074d57600080fd5b8035906020019184600183028401116401000000008311171561076f57600080fd5b91908080601f016020809104026020016040519081016040528093929190818152602001838380828437600081840152601f19601f820116905080830192505050505050509192919290505050611808565b005b61080f600480360360408110156107d957600080fd5b81019080803573ffffffffffffffffffffffffffffffffffffffff1690602001909291908035906020019092919050505061184b565b6040518082815260200191505060405180910390f35b61097f6004803603606081101561083b57600080fd5b81019080803590602001909291908035906020019064010000000081111561086257600080fd5b82018360208201111561087457600080fd5b8035906020019184600183028401116401000000008311171561089657600080fd5b91908080601f016020809104026020016040519081016040528093929190818152602001838380828437600081840152601f19601f820116905080830192505050505050509192919290803590602001906401000000008111156108f957600080fd5b82018360208201111561090b57600080fd5b8035906020019184600183028401116401000000008311171561092d57600080fd5b91908080601f016020809104026020016040519081016040528093929190818152602001838380828437600081840152601f19601f8201169050808301925050505050505091929192905050506118c2565b005b6109896118c7565b005b6109d7600480360360408110156109a157600080fd5b81019080803573ffffffffffffffffffffffffffffffffffffffff16906020019092919080359060200190929190505050611a8e565b604051808215151515815260200191505060405180910390f35b610a5d60048036036060811015610a0757600080fd5b81019080803573ffffffffffffffffffffffffffffffffffffffff169060200190929190803573ffffffffffffffffffffffffffffffffffffffff16906020019092919080359060200190929190505050611b71565b005b610a8b60048036036020811015610a7557600080fd5b8101908080359060200190929190505050611b92565b6040518082815260200191505060405180910390f35b610aa9611bca565b604051808215151515815260200191505060405180910390f35b610aef60048036036020811015610ad957600080fd5b8101908080359060200190929190505050611be0565b604051808273ffffffffffffffffffffffffffffffffffffffff1673ffffffffffffffffffffffffffffffffffffffff16815260200191505060405180910390f35b610b7360048036036020811015610b4757600080fd5b81019080803573ffffffffffffffffffffffffffffffffffffffff169060200190929190505050611c1d565b6040518082815260200191505060405180910390f35b610b91611cf4565b005b610b9b611ebd565b604051808273ffffffffffffffffffffffffffffffffffffffff1673ffffffffffffffffffffffffffffffffffffffff16815260200191505060405180910390f35b610be5611ee6565b6040518080602001828103825283818151815260200191508051906020019080838360005b83811015610c25578082015181840152602081019050610c0a565b50505050905090810190601f168015610c525780820380516001836020036101000a031916815260200191505b509250505060405180910390f35b610cae60048036036040811015610c7657600080fd5b81019080803573ffffffffffffffffffffffffffffffffffffffff169060200190929190803515159060200190929190505050611f88565b005b610db360048036036080811015610cc657600080fd5b81019080803573ffffffffffffffffffffffffffffffffffffffff169060200190929190803573ffffffffffffffffffffffffffffffffffffffff1690602001909291908035906020019092919080359060200190640100000000811115610d2d57600080fd5b820183602082011115610d3f57600080fd5b80359060200191846001830284011164010000000083111715610d6157600080fd5b91908080601f016020809104026020016040519081016040528093929190818152602001838380828437600081840152601f19601f8201169050808301925050505050505091929192905050506120c4565b005b610de160048036036020811015610dcb57600080fd5b81019080803590602001909291905050506120ec565b6040518080602001828103825283818151815260200191508051906020019080838360005b83811015610e21578082015181840152602081019050610e06565b50505050905090810190601f168015610e4e5780820380516001836020036101000a031916815260200191505b509250505060405180910390f35b610ea860048036036040811015610e7257600080fd5b8101908080359060200190929190803573ffffffffffffffffffffffffffffffffffffffff1690602001909291905050506121b5565b005b610eb26123ff565b6040518080602001828103825283818151815260200191508051906020019080838360005b83811015610ef2578082015181840152602081019050610ed7565b50505050905090810190601f168015610f1f5780820380516001836020036101000a031916815260200191505b509250505060405180910390f35b610f8f60048036036040811015610f4357600080fd5b81019080803573ffffffffffffffffffffffffffffffffffffffff169060200190929190803573ffffffffffffffffffffffffffffffffffffffff1690602001909291905050506124a1565b604051808215151515815260200191505060405180910390f35b610feb60048036036020811015610fbf57600080fd5b81019080803573ffffffffffffffffffffffffffffffffffffffff169060200190929190505050612535565b005b611291600480360361028081101561100457600080fd5b8101908080604001906002806020026040519081016040528092919082600260200280828437600081840152601f19601f820116905080830192505050505050919291929080604001906002806020026040519081016040528092919082600260200280828437600081840152601f19601f82011690508083019250505050505091929192908060800190600280602002604051908101604052809291906000905b828210156110fa578382604002016002806020026040519081016040528092919082600260200280828437600081840152601f19601f820116905080830192505050505050815260200190600101906110a6565b50505050919291929080604001906002806020026040519081016040528092919082600260200280828437600081840152601f19601f820116905080830192505050505050919291929080604001906002806020026040519081016040528092919082600260200280828437600081840152601f19601f820116905080830192505050505050919291929080604001906002806020026040519081016040528092919082600260200280828437600081840152601f19601f820116905080830192505050505050919291929080604001906002806020026040519081016040528092919082600260200280828437600081840152601f19601f820116905080830192505050505050919291929080604001906002806020026040519081016040528092919082600260200280828437600081840152601f19601f820116905080830192505050505050919291929080604001906002806020026040519081016040528092919082600260200280828437600081840152601f19601f820116905080830192505050505050919291929050505061275b565b604051808215151515815260200191505060405180910390f35b600060016000837bffffffffffffffffffffffffffffffffffffffffffffffffffffffff19167bffffffffffffffffffffffffffffffffffffffffffffffffffffffff1916815260200190815260200160002060009054906101000a900460ff169050919050565b6060600f8054600181600116156101000203166002900480601f0160208091040260200160405190810160405280929190818152602001828054600181600116156101000203166002900480156113ab5780601f10611380576101008083540402835291602001916113ab565b820191906000526020600020905b81548152906001019060200180831161138e57829003601f168201915b5050505050905090565b60006003600083815260200190815260200160002060009054906101000a900473ffffffffffffffffffffffffffffffffffffffff169050919050565b6113fb81611be0565b73ffffffffffffffffffffffffffffffffffffffff168273ffffffffffffffffffffffffffffffffffffffff1614151515611481576040517f08c379a000000000000000000000000000000000000000000000000000000000815260040180806020018281038252603181526020018061505c6031913960400191505060405180910390fd5b61148a81611be0565b73ffffffffffffffffffffffffffffffffffffffff163373ffffffffffffffffffffffffffffffffffffffff1614806114d157506114d06114ca82611be0565b336124a1565b5b1515611528576040517f08c379a00000000000000000000000000000000000000000000000000000000081526004018080602001828103825260598152602001806150db6059913960600191505060405180910390fd5b816003600083815260200190815260200160002060006101000a81548173ffffffffffffffffffffffffffffffffffffffff021916908373ffffffffffffffffffffffffffffffffffffffff160217905550808273ffffffffffffffffffffffffffffffffffffffff1661159b83611be0565b73ffffffffffffffffffffffffffffffffffffffff167f8c5be1e5ebec7d5bd14f71427d1e84f3dd0314c0f7b2291e5b200ac8c7c3b92560405160405180910390a45050565b6000600880549050905090565b60006116018a8a8a8a8a8a8a8a8a61275b565b1515611675576040517f08c379a00000000000000000000000000000000000000000000000000000000081526004018080602001828103825260108152602001807f70726f6f6620697320696e76616c69640000000000000000000000000000000081525060200191505060405180910390fd5b60008c8c604051602001808381526020018273ffffffffffffffffffffffffffffffffffffffff1673ffffffffffffffffffffffffffffffffffffffff166c0100000000000000000000000002815260140192505050604051602081830303815290604052805190602001209050600073ffffffffffffffffffffffffffffffffffffffff166014600083815260200190815260200160002060010160009054906101000a900473ffffffffffffffffffffffffffffffffffffffff1673ffffffffffffffffffffffffffffffffffffffff161415156117bd576040517f08c379a00000000000000000000000000000000000000000000000000000000081526004018080602001828103825260168152602001807f736f6c7574696f6e206973206e6f7420756e697175650000000000000000000081525060200191505060405180910390fd5b6117c78d8d6121b5565b6117d18c8e611a8e565b9150509b9a5050505050505050505050565b6117ed3382612b14565b15156117f857600080fd5b611803838383612ba9565b505050565b611847828260006040519080825280601f01601f1916602001820160405280156118415781602001600182028038833980820191505090505b506118c2565b5050565b600061185683611c1d565b8210151561186357600080fd5b600660008473ffffffffffffffffffffffffffffffffffffffff1673ffffffffffffffffffffffffffffffffffffffff168152602001908152602001600020828154811015156118af57fe5b9060005260206000200154905092915050565b505050565b6000809054906101000a900473ffffffffffffffffffffffffffffffffffffffff1673ffffffffffffffffffffffffffffffffffffffff163373ffffffffffffffffffffffffffffffffffffffff1614151561198b576040517f08c379a000000000000000000000000000000000000000000000000000000000815260040180806020018281038252601c8152602001807f43616c6c6572206973206e6f7420636f6e7472616374206f776e65720000000081525060200191505060405180910390fd5b600060149054906101000a900460ff161515611a0f576040517f08c379a00000000000000000000000000000000000000000000000000000000081526004018080602001828103825260148152602001807f5061757361626c653a206e6f742070617573656400000000000000000000000081525060200191505060405180910390fd5b60008060146101000a81548160ff0219169083151502179055507f5db9ee0a495bf2e6ff9c91a7834c1ba4fdd244a5e8aa4e537bd38aeae4b073aa33604051808273ffffffffffffffffffffffffffffffffffffffff1673ffffffffffffffffffffffffffffffffffffffff16815260200191505060405180910390a1565b60008060009054906101000a900473ffffffffffffffffffffffffffffffffffffffff1673ffffffffffffffffffffffffffffffffffffffff163373ffffffffffffffffffffffffffffffffffffffff16141515611b54576040517f08c379a000000000000000000000000000000000000000000000000000000000815260040180806020018281038252601c8152602001807f43616c6c6572206973206e6f7420636f6e7472616374206f776e65720000000081525060200191505060405180910390fd5b611b5e8383612bcd565b611b6782612bee565b6001905092915050565b611b8d83838360206040519081016040528060008152506120c4565b505050565b6000611b9c6115e1565b82101515611ba957600080fd5b600882815481101515611bb857fe5b90600052602060002001549050919050565b60008060149054906101000a900460ff16905090565b60006002600083815260200190815260200160002060009054906101000a900473ffffffffffffffffffffffffffffffffffffffff169050919050565b60008073ffffffffffffffffffffffffffffffffffffffff168273ffffffffffffffffffffffffffffffffffffffff1614151515611ca6576040517f08c379a000000000000000000000000000000000000000000000000000000000815260040180806020018281038252602a815260200180615032602a913960400191505060405180910390fd5b611ced600460008473ffffffffffffffffffffffffffffffffffffffff1673ffffffffffffffffffffffffffffffffffffffff168152602001908152602001600020612d24565b9050919050565b6000809054906101000a900473ffffffffffffffffffffffffffffffffffffffff1673ffffffffffffffffffffffffffffffffffffffff163373ffffffffffffffffffffffffffffffffffffffff16141515611db8576040517f08c379a000000000000000000000000000000000000000000000000000000000815260040180806020018281038252601c8152602001807f43616c6c6572206973206e6f7420636f6e7472616374206f776e65720000000081525060200191505060405180910390fd5b600060149054906101000a900460ff16151515611e3d576040517f08c379a00000000000000000000000000000000000000000000000000000000081526004018080602001828103825260108152602001807f5061757361626c653a207061757365640000000000000000000000000000000081525060200191505060405180910390fd5b6001600060146101000a81548160ff0219169083151502179055507f62e78cea01bee320cd4e420270b5ea74000d11b0c9f74754ebdbfc544b05a25833604051808273ffffffffffffffffffffffffffffffffffffffff1673ffffffffffffffffffffffffffffffffffffffff16815260200191505060405180910390a1565b60008060009054906101000a900473ffffffffffffffffffffffffffffffffffffffff16905090565b606060108054600181600116156101000203166002900480601f016020809104026020016040519081016040528092919081815260200182805460018160011615610100020316600290048015611f7e5780601f10611f5357610100808354040283529160200191611f7e565b820191906000526020600020905b815481529060010190602001808311611f6157829003601f168201915b5050505050905090565b3373ffffffffffffffffffffffffffffffffffffffff168273ffffffffffffffffffffffffffffffffffffffff1614151515611fc357600080fd5b80600560003373ffffffffffffffffffffffffffffffffffffffff1673ffffffffffffffffffffffffffffffffffffffff16815260200190815260200160002060008473ffffffffffffffffffffffffffffffffffffffff1673ffffffffffffffffffffffffffffffffffffffff16815260200190815260200160002060006101000a81548160ff0219169083151502179055508173ffffffffffffffffffffffffffffffffffffffff163373ffffffffffffffffffffffffffffffffffffffff167f17307eab39ab6107e8899845ad3d59bd9653f200f220920489ca2b5937696c3183604051808215151515815260200191505060405180910390a35050565b6120cf8484846117e3565b6120db84848484612d32565b15156120e657600080fd5b50505050565b60606120f782612f55565b151561210257600080fd5b601260008381526020019081526020016000208054600181600116156101000203166002900480601f0160208091040260200160405190810160405280929190818152602001828054600181600116156101000203166002900480156121a95780601f1061217e576101008083540402835291602001916121a9565b820191906000526020600020905b81548152906001019060200180831161218c57829003601f168201915b50505050509050919050565b60008282604051602001808381526020018273ffffffffffffffffffffffffffffffffffffffff1673ffffffffffffffffffffffffffffffffffffffff166c0100000000000000000000000002815260140192505050604051602081830303815290604052805190602001209050600073ffffffffffffffffffffffffffffffffffffffff166014600083815260200190815260200160002060010160009054906101000a900473ffffffffffffffffffffffffffffffffffffffff1673ffffffffffffffffffffffffffffffffffffffff161415156122fd576040517f08c379a00000000000000000000000000000000000000000000000000000000081526004018080602001828103825260168152602001807f736f6c7574696f6e206973206e6f7420756e697175650000000000000000000081525060200191505060405180910390fd5b60408051908101604052808481526020018373ffffffffffffffffffffffffffffffffffffffff16815250601460008381526020019081526020016000206000820151816000015560208201518160010160006101000a81548173ffffffffffffffffffffffffffffffffffffffff021916908373ffffffffffffffffffffffffffffffffffffffff1602179055509050507f078793128cefb19aac38a33f9e5df39f67716907f6d747e8065545699e0b2b8d8383604051808381526020018273ffffffffffffffffffffffffffffffffffffffff1673ffffffffffffffffffffffffffffffffffffffff1681526020019250505060405180910390a1505050565b606060118054600181600116156101000203166002900480601f0160208091040260200160405190810160405280929190818152602001828054600181600116156101000203166002900480156124975780601f1061246c57610100808354040283529160200191612497565b820191906000526020600020905b81548152906001019060200180831161247a57829003601f168201915b5050505050905090565b6000600560008473ffffffffffffffffffffffffffffffffffffffff1673ffffffffffffffffffffffffffffffffffffffff16815260200190815260200160002060008373ffffffffffffffffffffffffffffffffffffffff1673ffffffffffffffffffffffffffffffffffffffff16815260200190815260200160002060009054906101000a900460ff16905092915050565b6000809054906101000a900473ffffffffffffffffffffffffffffffffffffffff1673ffffffffffffffffffffffffffffffffffffffff163373ffffffffffffffffffffffffffffffffffffffff161415156125f9576040517f08c379a000000000000000000000000000000000000000000000000000000000815260040180806020018281038252601c8152602001807f43616c6c6572206973206e6f7420636f6e7472616374206f776e65720000000081525060200191505060405180910390fd5b600073ffffffffffffffffffffffffffffffffffffffff168173ffffffffffffffffffffffffffffffffffffffff1614151515612681576040517f08c379a00000000000000000000000000000000000000000000000000000000081526004018080602001828103825260228152602001806151696022913960400191505060405180910390fd5b806000806101000a81548173ffffffffffffffffffffffffffffffffffffffff021916908373ffffffffffffffffffffffffffffffffffffffff1602179055507f0d18b5fd22306e373229b9439188228edca81207d1667f604daf6cef8aa3ee673382604051808373ffffffffffffffffffffffffffffffffffffffff1673ffffffffffffffffffffffffffffffffffffffff1681526020018273ffffffffffffffffffffffffffffffffffffffff1673ffffffffffffffffffffffffffffffffffffffff1681526020019250505060405180910390a150565b6000612765614d49565b60408051908101604052808c600060028110151561277f57fe5b602002015181526020018c600160028110151561279857fe5b6020020151815250816000018190525060408051908101604052808b60006002811015156127c257fe5b602002015181526020018b60016002811015156127db57fe5b60200201518152508160200181905250604080519081016040528060408051908101604052808c600060028110151561281057fe5b6020020151600060028110151561282357fe5b602002015181526020018c600060028110151561283c57fe5b6020020151600160028110151561284f57fe5b6020020151815250815260200160408051908101604052808c600160028110151561287657fe5b6020020151600060028110151561288957fe5b602002015181526020018c60016002811015156128a257fe5b602002015160016002811015156128b557fe5b6020020151815250815250816040018190525060408051908101604052808960006002811015156128e257fe5b602002015181526020018960016002811015156128fb57fe5b60200201518152508160600181905250604080519081016040528088600060028110151561292557fe5b6020020151815260200188600160028110151561293e57fe5b60200201518152508160800181905250604080519081016040528087600060028110151561296857fe5b6020020151815260200187600160028110151561298157fe5b60200201518152508160a0018190525060408051908101604052808660006002811015156129ab57fe5b602002015181526020018660016002811015156129c457fe5b60200201518152508160e0018190525060408051908101604052808560006002811015156129ee57fe5b60200201518152602001856001600281101515612a0757fe5b60200201518152508160c0018190525060606002604051908082528060200260200182016040528015612a495781602001602082028038833980820191505090505b50905060008090505b6002811015612a97578481600281101515612a6957fe5b60200201518282815181101515612a7c57fe5b90602001906020020181815250508080600101915050612a52565b506000612aa48284612fc7565b1415612b00577f3f3cfdb26fb5f9f1786ab4f1a1f9cd4c0b5e726cbdfc26e495261731aad44e3960405180806020018281038252602281526020018061508d6022913960400191505060405180910390a1600192505050612b07565b6000925050505b9998505050505050505050565b600080612b2083611be0565b90508073ffffffffffffffffffffffffffffffffffffffff168473ffffffffffffffffffffffffffffffffffffffff161480612b8f57508373ffffffffffffffffffffffffffffffffffffffff16612b77846113b5565b73ffffffffffffffffffffffffffffffffffffffff16145b80612ba05750612b9f81856124a1565b5b91505092915050565b612bb4838383613207565b612bbe8382613466565b612bc8828261360a565b505050565b612bd782826136d1565b612be1828261360a565b612bea816138ed565b5050565b612bf781612f55565b1515612c4e576040517f08c379a000000000000000000000000000000000000000000000000000000000815260040180806020018281038252602c8152602001806150af602c913960400191505060405180910390fd5b612cfa60118054600181600116156101000203166002900480601f016020809104026020016040519081016040528092919081815260200182805460018160011615610100020316600290048015612ce75780601f10612cbc57610100808354040283529160200191612ce7565b820191906000526020600020905b815481529060010190602001808311612cca57829003601f168201915b5050505050612cf583613939565b613a92565b601260008381526020019081526020016000209080519060200190612d20929190614dbf565b5050565b600081600001549050919050565b6000612d538473ffffffffffffffffffffffffffffffffffffffff16613ad9565b1515612d625760019050612f4d565b60008473ffffffffffffffffffffffffffffffffffffffff1663150b7a02338887876040518563ffffffff167c0100000000000000000000000000000000000000000000000000000000028152600401808573ffffffffffffffffffffffffffffffffffffffff1673ffffffffffffffffffffffffffffffffffffffff1681526020018473ffffffffffffffffffffffffffffffffffffffff1673ffffffffffffffffffffffffffffffffffffffff16815260200183815260200180602001828103825283818151815260200191508051906020019080838360005b83811015612e59578082015181840152602081019050612e3e565b50505050905090810190601f168015612e865780820380516001836020036101000a031916815260200191505b5095505050505050602060405180830381600087803b158015612ea857600080fd5b505af1158015612ebc573d6000803e3d6000fd5b505050506040513d6020811015612ed257600080fd5b8101908080519060200190929190505050905063150b7a027c0100000000000000000000000000000000000000000000000000000000027bffffffffffffffffffffffffffffffffffffffffffffffffffffffff1916817bffffffffffffffffffffffffffffffffffffffffffffffffffffffff1916149150505b949350505050565b6000806002600084815260200190815260200160002060009054906101000a900473ffffffffffffffffffffffffffffffffffffffff169050600073ffffffffffffffffffffffffffffffffffffffff168173ffffffffffffffffffffffffffffffffffffffff161415915050919050565b6000612fd1614e3f565b612fd9613aec565b90508060e00151516001855101141515612ff257600080fd5b612ffa614eaf565b6040805190810160405280600081526020016000815250905060008090505b85518110156130795761306a826130658560e001516001850181518110151561303e57fe5b90602001906020020151898581518110151561305657fe5b9060200190602002015161412d565b6141c9565b91508080600101915050613019565b506130a0818360e00151600081518110151561309157fe5b906020019060200201516141c9565b90506130c9846000015183600001516130bc8760200151614286565b6130c4614322565b6143ec565b15156130da57600192505050613201565b613101826020015185604001516130f48760600151614286565b6130fc614322565b6143ec565b151561311257600292505050613201565b6131398460800151836040015161312c8760a00151614286565b613134614322565b6143ec565b151561314a57600392505050613201565b6131968460c00151836060015161317a613175856131708a600001518b608001516141c9565b6141c9565b614286565b8560a0015161318c8760800151614286565b89604001516144f8565b15156131a757600492505050613201565b6131e96131b88286600001516141c9565b85604001516131ca8760e00151614286565b8560c001516131dc8960800151614286565b6131e4614322565b6144f8565b15156131fa57600592505050613201565b6000925050505b92915050565b6132113382612b14565b1515613268576040517f08c379a00000000000000000000000000000000000000000000000000000000081526004018080602001828103825260358152602001806151346035913960400191505060405180910390fd5b600073ffffffffffffffffffffffffffffffffffffffff168273ffffffffffffffffffffffffffffffffffffffff16141515156132f0576040517f08c379a000000000000000000000000000000000000000000000000000000000815260040180806020018281038252602481526020018061500e6024913960400191505060405180910390fd5b6003600082815260200190815260200160002060006101000a81549073ffffffffffffffffffffffffffffffffffffffff0219169055816002600083815260200190815260200160002060006101000a81548173ffffffffffffffffffffffffffffffffffffffff021916908373ffffffffffffffffffffffffffffffffffffffff1602179055506133bf600460008473ffffffffffffffffffffffffffffffffffffffff1673ffffffffffffffffffffffffffffffffffffffff168152602001908152602001600020614640565b613406600460008573ffffffffffffffffffffffffffffffffffffffff1673ffffffffffffffffffffffffffffffffffffffff168152602001908152602001600020614656565b808273ffffffffffffffffffffffffffffffffffffffff168473ffffffffffffffffffffffffffffffffffffffff167fddf252ad1be2c89b69c2b068fc378daa952ba7f163c4a11628f55a4df523b3ef60405160405180910390a4505050565b60006134be6001600660008673ffffffffffffffffffffffffffffffffffffffff1673ffffffffffffffffffffffffffffffffffffffff1681526020019081526020016000208054905061467990919063ffffffff16565b905060006007600084815260200190815260200160002054905081811415156135b1576000600660008673ffffffffffffffffffffffffffffffffffffffff1673ffffffffffffffffffffffffffffffffffffffff1681526020019081526020016000208381548110151561352f57fe5b9060005260206000200154905080600660008773ffffffffffffffffffffffffffffffffffffffff1673ffffffffffffffffffffffffffffffffffffffff1681526020019081526020016000208381548110151561358957fe5b9060005260206000200181905550816007600083815260200190815260200160002081905550505b600660008573ffffffffffffffffffffffffffffffffffffffff1673ffffffffffffffffffffffffffffffffffffffff1681526020019081526020016000208054809190600190036136039190614ec9565b5050505050565b600660008373ffffffffffffffffffffffffffffffffffffffff1673ffffffffffffffffffffffffffffffffffffffff168152602001908152602001600020805490506007600083815260200190815260200160002081905550600660008373ffffffffffffffffffffffffffffffffffffffff1673ffffffffffffffffffffffffffffffffffffffff1681526020019081526020016000208190806001815401808255809150509060018203906000526020600020016000909192909190915055505050565b600073ffffffffffffffffffffffffffffffffffffffff168273ffffffffffffffffffffffffffffffffffffffff1614151515613776576040517f08c379a00000000000000000000000000000000000000000000000000000000081526004018080602001828103825260208152602001807f4552433732313a206d696e7420746f20746865207a65726f206164647265737381525060200191505060405180910390fd5b61377f81612f55565b1515156137f4576040517f08c379a000000000000000000000000000000000000000000000000000000000815260040180806020018281038252601c8152602001807f4552433732313a20746f6b656e20616c7265616479206d696e7465640000000081525060200191505060405180910390fd5b816002600083815260200190815260200160002060006101000a81548173ffffffffffffffffffffffffffffffffffffffff021916908373ffffffffffffffffffffffffffffffffffffffff16021790555061388d600460008473ffffffffffffffffffffffffffffffffffffffff1673ffffffffffffffffffffffffffffffffffffffff168152602001908152602001600020614640565b808273ffffffffffffffffffffffffffffffffffffffff16600073ffffffffffffffffffffffffffffffffffffffff167fddf252ad1be2c89b69c2b068fc378daa952ba7f163c4a11628f55a4df523b3ef60405160405180910390a45050565b6008805490506009600083815260200190815260200160002081905550600881908060018154018082558091505090600182039060005260206000200160009091929091909150555050565b60606000821415613981576040805190810160405280600181526020017f30000000000000000000000000000000000000000000000000000000000000008152509050613a8d565b600082905060005b6000821415156139af578080600101915050600a828115156139a757fe5b049150613989565b6060816040519080825280601f01601f1916602001820160405280156139e45781602001600182028038833980820191505090505b50905060006001830390505b600086141515613a8557600a86811515613a0657fe5b066030017f010000000000000000000000000000000000000000000000000000000000000002828280600190039350815181101515613a4157fe5b9060200101907effffffffffffffffffffffffffffffffffffffffffffffffffffffffffffff1916908160001a905350600a86811515613a7d57fe5b0495506139f0565b819450505050505b919050565b6060613ad1838360206040519081016040528060008152506020604051908101604052806000815250602060405190810160405280600081525061469b565b905092915050565b600080823b905060008111915050919050565b613af4614e3f565b604080519081016040528060408051908101604052807f12006ffe575f4131c8dd3011de07d61e26fe85b6744fd782fff76fcc2ad21cbf81526020017f2e1ba33a9bcf927821aa795bc7f49cfd5fde40ff2c37eee9b973b6528055ae75815250815260200160408051908101604052807f2bcbb1239c9ba39c8d01804b15a28f87c27a48ee89cd713a3c7818770a34b72981526020017f168e2426ce75a9b12f257252ccc5ded0fc7d7baf234f2bb3de802326215286ad815250815250816000018190525060408051908101604052807f25847b02c39089102473ff0046b0827b1bb39403e73a419081337170f213a7c881526020017f06bfe6ec601a1560239eadc99e89b7f46fe036ec9052fbe01857d1ab45877e088152508160200181905250604080519081016040528060408051908101604052807f1b3fc3975aaec8fb3cc56a436f9c8669d6c59077ff8a53281b44e89d60c39d3681526020017f0f86132c8559a4b1544fa74e257fa5522aa63413b0e733b72c0c5aa93b7b7bcb815250815260200160408051908101604052807f1a86bc380dbd33a892560cc46e9d88b153404f497f54d768917621969d0ef94181526020017f06c4161ad8d1fb5b72f5f1f9aaa9e8772b13d568de504284c070a0fa2e2479758152508152508160400181905250604080519081016040528060408051908101604052807f2e6522ca24e138c9c2bb21572e29cbb0fcbd8f9356b3b0743ff91c7724dd688081526020017f06162f621d8b52cd6cdd3683dbe75f0f9889abff929ef6eb599f74134504b4d4815250815260200160408051908101604052807f2441a8b0b0020cd3b87ec81cf25734f04dcbf5de09478212704f6944f72a53cf81526020017f130ba74080e9eaa4e9a22ea4e0bae28570e34cea226eb0950d16d56185cdab68815250815250816060018190525060408051908101604052807f1ffd882f5053e163f0b6816d28e470129e970600cb23ff997a94cfbea43479d281526020017f08397b554455ce8cad056cf6b59de51b5aafcef1da9b3138532c3b1d164da5b68152508160800181905250604080519081016040528060408051908101604052807f0c30576b68ebf54d1f484ed3d71c837e65263ed08797b5b73b2ea7dc02198b6e81526020017f10188259ab5a0443f27ee79e1b0586d9f6f1269ba20ef58fb05a035706cf206a815250815260200160408051908101604052807f23a9c68b315c8e559a2b48651c205986e5e657483cf9252d86389546b533adc581526020017f2d9a46be40f18378c9d3cd39bf05060134f2def63b35901939a0dfa18a47617d8152508152508160a00181905250604080519081016040528060408051908101604052807f1c3cdb0fa63f47ce09d2938c5bdc4214cd1fd0f322c7f3a1e934f6ec41c6cd1c81526020017f08d494ab7c82860cf8615cf09770c7e42dee4fdc8a255c8e11054c03fb8f8f8d815250815260200160408051908101604052807f2e90794e3cdc1bdfaeaaae186ec0d565dc515a1ad376b863d959697f907cfd0681526020017f1904e1a10f93d52ee9336d5fdd070cf0e5be5456d80c8d0452e17c214033d6418152508152508160c001819052506003604051908082528060200260200182016040528015613fc257816020015b613faf614ef5565b815260200190600190039081613fa75790505b508160e0018190525060408051908101604052807f2ce9340932901b2bef57eb6ded4cf4be8cc3bcde844c48288b61b6698b1a661881526020017f0ff10f041039d5ddabdb9b49bce8d4e7fb672205115ffed78dc04dc570b71b608152508160e00151600081518110151561403357fe5b9060200190602002018190525060408051908101604052807f0ef1d4a86c51c8c884e359afef08a0d0a101d63a9e1e9edc4a9648dfe7005d4f81526020017f1c0fc7fc2693b292ede03cc88a2e3ce75dcf3a83b13745c5209bd9e837e327bd8152508160e0015160018151811015156140a857fe5b9060200190602002018190525060408051908101604052807f17e32c421ff54ab8d97df8061b16552237369ea291f40b67259a3671a88f8a6e81526020017f1f0907e604af74d05f556249d083c47f10e3717f596f9e7dc80786b03a40bd818152508160e00151600281518110151561411d57fe5b9060200190602002018190525090565b614135614eaf565b61413d614f0f565b836000015181600060038110151561415157fe5b602002018181525050836020015181600160038110151561416e57fe5b6020020181815250508281600260038110151561418757fe5b6020020181815250506000606083608084600060076107d05a03f1905080600081146141b2576141b4565bfe5b508015156141c157600080fd5b505092915050565b6141d1614eaf565b6141d9614f32565b83600001518160006004811015156141ed57fe5b602002018181525050836020015181600160048110151561420a57fe5b602002018181525050826000015181600260048110151561422757fe5b602002018181525050826020015181600360048110151561424457fe5b602002018181525050600060608360c084600060066107d05a03f19050806000811461426f57614271565bfe5b5080151561427e57600080fd5b505092915050565b61428e614eaf565b60007f30644e72e131a029b85045b68181585d97816a916871ca8d3c208c16d87cfd479050600083600001511480156142cb575060008360200151145b156142ef57604080519081016040528060008152602001600081525091505061431d565b60408051908101604052808460000151815260200182856020015181151561431357fe5b0683038152509150505b919050565b61432a614f55565b604080519081016040528060408051908101604052807f198e9393920d483a7260bfb731fb5d25f1aa493335a9e71297e485b7aef312c281526020017f1800deef121f1e76426a00665e5c4479674322d4f75edadd46debd5cd992f6ed815250815260200160408051908101604052807f090689d0585ff075ec9e99ad690c3395bc4b313370b38ef355acdadcd122975b81526020017f12c85ea5db8c6deb4aab71808dcb408fe3d1e7690c43d37b4ce6cc0166fa7daa815250815250905090565b60006060600260405190808252806020026020018201604052801561442b57816020015b614418614ef5565b8152602001906001900390816144105790505b5090506060600260405190808252806020026020018201604052801561446b57816020015b614458614f7c565b8152602001906001900390816144505790505b5090508682600081518110151561447e57fe5b906020019060200201819052508482600181518110151561449b57fe5b90602001906020020181905250858160008151811015156144b857fe5b90602001906020020181905250838160018151811015156144d557fe5b906020019060200201819052506144ec8282614ab6565b92505050949350505050565b60006060600360405190808252806020026020018201604052801561453757816020015b614524614ef5565b81526020019060019003908161451c5790505b5090506060600360405190808252806020026020018201604052801561457757816020015b614564614f7c565b81526020019060019003908161455c5790505b5090508882600081518110151561458a57fe5b90602001906020020181905250868260018151811015156145a757fe5b90602001906020020181905250848260028151811015156145c457fe5b90602001906020020181905250878160008151811015156145e157fe5b90602001906020020181905250858160018151811015156145fe57fe5b906020019060200201819052508381600281518110151561461b57fe5b906020019060200201819052506146328282614ab6565b925050509695505050505050565b6001816000016000828254019250508190555050565b61466e6001826000015461467990919063ffffffff16565b816000018190555050565b600082821115151561468a57600080fd5b600082840390508091505092915050565b6060808690506060869050606086905060608690506060869050606081518351855187518951010101016040519080825280601f01601f1916602001820160405280156146f75781602001600182028038833980820191505090505b509050606081905060008090506000809050600090505b88518110156147c157888181518110151561472557fe5b9060200101517f010000000000000000000000000000000000000000000000000000000000000090047f010000000000000000000000000000000000000000000000000000000000000002838380600101945081518110151561478457fe5b9060200101907effffffffffffffffffffffffffffffffffffffffffffffffffffffffffffff1916908160001a905350808060010191505061470e565b600090505b87518110156148795787818151811015156147dd57fe5b9060200101517f010000000000000000000000000000000000000000000000000000000000000090047f010000000000000000000000000000000000000000000000000000000000000002838380600101945081518110151561483c57fe5b9060200101907effffffffffffffffffffffffffffffffffffffffffffffffffffffffffffff1916908160001a90535080806001019150506147c6565b600090505b865181101561493157868181518110151561489557fe5b9060200101517f010000000000000000000000000000000000000000000000000000000000000090047f01000000000000000000000000000000000000000000000000000000000000000283838060010194508151811015156148f457fe5b9060200101907effffffffffffffffffffffffffffffffffffffffffffffffffffffffffffff1916908160001a905350808060010191505061487e565b600090505b85518110156149e957858181518110151561494d57fe5b9060200101517f010000000000000000000000000000000000000000000000000000000000000090047f01000000000000000000000000000000000000000000000000000000000000000283838060010194508151811015156149ac57fe5b9060200101907effffffffffffffffffffffffffffffffffffffffffffffffffffffffffffff1916908160001a9053508080600101915050614936565b600090505b8451811015614aa1578481815181101515614a0557fe5b9060200101517f010000000000000000000000000000000000000000000000000000000000000090047f0100000000000000000000000000000000000000000000000000000000000000028383806001019450815181101515614a6457fe5b9060200101907effffffffffffffffffffffffffffffffffffffffffffffffffffffffffffff1916908160001a90535080806001019150506149ee565b82995050505050505050505095945050505050565b600081518351141515614ac857600080fd5b6000835190506000600682029050606081604051908082528060200260200182016040528015614b075781602001602082028038833980820191505090505b50905060008090505b83811015614ce5578681815181101515614b2657fe5b90602001906020020151600001518260006006840201815181101515614b4857fe5b90602001906020020181815250508681815181101515614b6457fe5b90602001906020020151602001518260016006840201815181101515614b8657fe5b90602001906020020181815250508581815181101515614ba257fe5b90602001906020020151600001516000600281101515614bbe57fe5b60200201518260026006840201815181101515614bd757fe5b90602001906020020181815250508581815181101515614bf357fe5b90602001906020020151600001516001600281101515614c0f57fe5b60200201518260036006840201815181101515614c2857fe5b90602001906020020181815250508581815181101515614c4457fe5b90602001906020020151602001516000600281101515614c6057fe5b60200201518260046006840201815181101515614c7957fe5b90602001906020020181815250508581815181101515614c9557fe5b90602001906020020151602001516001600281101515614cb157fe5b60200201518260056006840201815181101515614cca57fe5b90602001906020020181815250508080600101915050614b10565b50614cee614fa3565b60006020826020860260208601600060086107d05a03f190508060008114614d1557614d17565bfe5b50801515614d2457600080fd5b6000826000600181101515614d3557fe5b602002015114159550505050505092915050565b61024060405190810160405280614d5e614ef5565b8152602001614d6b614ef5565b8152602001614d78614f7c565b8152602001614d85614ef5565b8152602001614d92614ef5565b8152602001614d9f614ef5565b8152602001614dac614ef5565b8152602001614db9614ef5565b81525090565b828054600181600116156101000203166002900490600052602060002090601f016020900481019282601f10614e0057805160ff1916838001178555614e2e565b82800160010185558215614e2e579182015b82811115614e2d578251825591602001919060010190614e12565b5b509050614e3b9190614fc6565b5090565b61032060405190810160405280614e54614f7c565b8152602001614e61614ef5565b8152602001614e6e614f7c565b8152602001614e7b614f7c565b8152602001614e88614ef5565b8152602001614e95614f7c565b8152602001614ea2614f7c565b8152602001606081525090565b604080519081016040528060008152602001600081525090565b815481835581811115614ef057818360005260206000209182019101614eef9190614fc6565b5b505050565b604080519081016040528060008152602001600081525090565b606060405190810160405280600390602082028038833980820191505090505090565b608060405190810160405280600490602082028038833980820191505090505090565b608060405190810160405280614f69614feb565b8152602001614f76614feb565b81525090565b608060405190810160405280614f90614feb565b8152602001614f9d614feb565b81525090565b602060405190810160405280600190602082028038833980820191505090505090565b614fe891905b80821115614fe4576000816000905550600101614fcc565b5090565b90565b604080519081016040528060029060208202803883398082019150509050509056fe4552433732313a207472616e7366657220746f20746865207a65726f20616464726573734552433732313a2062616c616e636520717565727920666f7220746865207a65726f20616464726573734552433732313a20676976656e206164647265737320697320746865206f776e6572206f662074686520746f6b656e49645472616e73616374696f6e207375636365737366756c6c792076657269666965642e4552433732314d657461646174613a2055524920736574206f66206e6f6e6578697374656e7420746f6b656e4552433732313a20676976656e2061646472657373206973206e65697468657220746865206f776e6572206f662074686520636f6e7472616374206e6f72206973417070726f766564466f72416c6c282920697320747275654552433732313a207472616e736665722063616c6c6572206973206e656974686572206f776e6572206e6f7220617070726f7665644f776e61626c653a206e6577206f776e6572206973207a65726f2061646472657373a165627a7a72305820f20ea23344dbd3a647e22335c13a1947832592431c8e8b8f575a86b45cbc4c40002968747470733a2f2f73332d75732d776573742d322e616d617a6f6e6177732e636f6d2f756461636974792d626c6f636b636861696e2f63617073746f6e652f",
  "source": "pragma solidity >=0.4.21 <0.6.0;\n\n// TODO define a contract call to the zokrates generated solidity contract <Verifier> or <renamedVerifier>\nimport \"./verifier.sol\";\nimport \"./ERC721Mintable.sol\";\n\n// TODO define another contract named SolnSquareVerifier that inherits from your ERC721Mintable class\ncontract SolnSquareVerifier is RealestateToken, Verifier{\n\n\n// TODO define a solutions struct that can hold an index & an address\nstruct solution {\n    uint256 _index;\n    address _address;\n}\n\n// TODO define an array of the above struct\nsolution[] solutionArray;\n\n// TODO define a mapping to store unique solutions submitted\nmapping(bytes32 => solution) private solutions;\n\n// TODO Create an event to emit when a solution is added\nevent SolutionAdded(uint256 _index, address _address);\n\n\n// TODO Create a function to add the solutions to the array and emit the event\nfunction addSolution(uint256 _index, address _address) public {\n    bytes32 solutionHash = keccak256(abi.encodePacked(_index, _address));\n    require(solutions[solutionHash]._address == address(0), \"solution is not unique\");\n    solutions[solutionHash] = solution({\n                                _index: _index,\n                                _address: _address\n                        });\n    emit SolutionAdded(_index, _address);\n}\n\n\n// TODO Create a function to mint new NFT only after the solution has been verified\n//  - make sure you handle metadata as well as tokenSupply\nfunction mintNFT(uint256 _index, address _address, uint[2] memory a, uint[2] memory a_p,\n                 uint[2][2] memory b, uint[2] memory b_p, uint[2] memory c, uint[2] memory c_p,\n                 uint[2] memory h, uint[2] memory k, uint[2] memory input) \n    public \n    returns (bool) \n    {\n        require(verifyTx(a, a_p, b, b_p, c, c_p, h, k, input), \"proof is invalid\");\n        //  - make sure the solution is unique (has not been used before)\n        bytes32 solutionHash = keccak256(abi.encodePacked(_index, _address));\n        require(solutions[solutionHash]._address == address(0), \"solution is not unique\");\n        addSolution(_index, _address);\n        return mint(_address, _index);\n    }\n}\n\n\n\n\n\n\n\n\n\n\n\n\n\n\n\n\n\n\n\n\n\n\n\n\n\n",
  "sourcePath": "/Users/ammar/NodeJSWorkspace/Blockchain-Capstone/eth-contracts/contracts/SolnSquareVerifier.sol",
  "compiler": {
    "name": "solc",
    "version": "0.5.2+commit.1df8f40c.Emscripten.clang"
  },
  "schemaVersion": "3.0.9",
  "updatedAt": "2019-05-11T02:40:13.563Z",
  "devdoc": {
    "methods": {
      "isApprovedForAll(address,address)": {
        "details": "Tells whether an operator is approved by a given owner",
        "params": {
          "operator": "operator address which you want to query the approval of",
          "owner": "owner address which you want to query the approval of"
        },
        "return": "bool whether the given operator is approved by the given owner"
      },
      "pause()": {
        "details": "Called by a pauser to pause, triggers stopped state."
      },
      "paused()": {
        "return": "True if the contract is paused, false otherwise."
      },
      "setApprovalForAll(address,bool)": {
        "details": "Sets or unsets the approval of a given operator An operator is allowed to transfer all tokens of the sender on their behalf",
        "params": {
          "approved": "representing the status of the approval to be set",
          "to": "operator address to set the approval"
        }
      },
      "supportsInterface(bytes4)": {
        "details": "implement supportsInterface(bytes4) using a lookup table"
      },
      "tokenByIndex(uint256)": {
        "details": "Gets the token ID at a given index of all the tokens in this contract Reverts if the index is greater or equal to the total number of tokens",
        "params": {
          "index": "uint256 representing the index to be accessed of the tokens list"
        },
        "return": "uint256 token ID at the given index of the tokens list"
      },
      "tokenOfOwnerByIndex(address,uint256)": {
        "details": "Gets the token ID at a given index of the tokens list of the requested owner",
        "params": {
          "index": "uint256 representing the index to be accessed of the requested tokens list",
          "owner": "address owning the tokens list to be accessed"
        },
        "return": "uint256 token ID at the given index of the tokens list owned by the requested address"
      },
      "totalSupply()": {
        "details": "Gets the total amount of tokens stored by the contract",
        "return": "uint256 representing the total amount of tokens"
      },
      "unpause()": {
        "details": "Called by a pauser to unpause, returns to normal state."
      }
    }
  },
  "userdoc": {
    "methods": {}
  }
}